{
  "contractName": "Will",
  "abi": [
    {
      "inputs": [],
      "name": "initWill",
      "outputs": [],
      "stateMutability": "payable",
      "type": "function"
    },
    {
      "inputs": [],
      "name": "getWillState",
      "outputs": [
        {
          "internalType": "enum Will.State",
          "name": "",
          "type": "uint8"
        }
      ],
      "stateMutability": "view",
      "type": "function"
    },
    {
      "inputs": [],
      "name": "getAllBeneficiaries",
      "outputs": [
        {
          "internalType": "address payable[]",
          "name": "",
          "type": "address[]"
        }
      ],
      "stateMutability": "view",
      "type": "function"
    },
    {
      "inputs": [],
      "name": "getSharesOfBeneficiaries",
      "outputs": [
        {
          "internalType": "uint256[]",
          "name": "",
          "type": "uint256[]"
        }
      ],
      "stateMutability": "view",
      "type": "function"
    },
    {
      "inputs": [],
      "name": "getTotalAmount",
      "outputs": [
        {
          "internalType": "uint256",
          "name": "",
          "type": "uint256"
        }
      ],
      "stateMutability": "view",
      "type": "function"
    },
    {
      "inputs": [],
      "name": "getCurrentEndDate",
      "outputs": [
        {
          "internalType": "uint256",
          "name": "",
          "type": "uint256"
        }
      ],
      "stateMutability": "view",
      "type": "function"
    },
    {
      "inputs": [
        {
          "internalType": "address[]",
          "name": "addresses",
          "type": "address[]"
        },
        {
          "internalType": "uint256[]",
          "name": "shares",
          "type": "uint256[]"
        },
        {
          "internalType": "uint256",
          "name": "payoutDate",
          "type": "uint256"
        }
      ],
      "name": "editWill",
      "outputs": [],
      "stateMutability": "nonpayable",
      "type": "function"
    },
    {
      "inputs": [],
      "name": "deleteWill",
      "outputs": [],
      "stateMutability": "nonpayable",
      "type": "function"
    },
    {
      "inputs": [],
      "name": "payoutExpiredWills",
      "outputs": [],
      "stateMutability": "nonpayable",
      "type": "function"
    },
    {
      "inputs": [
        {
          "internalType": "uint256",
          "name": "time",
          "type": "uint256"
        }
      ],
      "name": "checkTimeOfWill",
      "outputs": [
        {
          "internalType": "bool",
          "name": "",
          "type": "bool"
        }
      ],
      "stateMutability": "view",
      "type": "function"
    }
  ],
  "bytecode": "0x608060405234801561001057600080fd5b506115d3806100206000396000f3fe6080604052600436106100915760003560e01c806365ac43411161005957806365ac4341146101875780636fa65903146101b257806382d912cb1461031557806385da28a514610381578063f5e74f6b1461039857610091565b8063210879f41461009657806329931bb4146100ad5780632f14bae8146100e6578063488ad233146101525780635df3af011461015c575b600080fd5b3480156100a257600080fd5b506100ab6103eb565b005b3480156100b957600080fd5b506100c261055a565b604051808260038111156100d257fe5b60ff16815260200191505060405180910390f35b3480156100f257600080fd5b506100fb6105b1565b6040518080602001828103825283818151815260200191508051906020019060200280838360005b8381101561013e578082015181840152602081019050610123565b505050509050019250505060405180910390f35b61015a6106fa565b005b34801561016857600080fd5b50610171610868565b6040518082815260200191505060405180910390f35b34801561019357600080fd5b5061019c610970565b6040518082815260200191505060405180910390f35b3480156101be57600080fd5b50610313600480360360608110156101d557600080fd5b81019080803590602001906401000000008111156101f257600080fd5b82018360208201111561020457600080fd5b8035906020019184602083028401116401000000008311171561022657600080fd5b919080806020026020016040519081016040528093929190818152602001838360200280828437600081840152601f19601f8201169050808301925050505050505091929192908035906020019064010000000081111561028657600080fd5b82018360208201111561029857600080fd5b803590602001918460208302840111640100000000831117156102ba57600080fd5b919080806020026020016040519081016040528093929190818152602001838360200280828437600081840152601f19601f82011690508083019250505050505050919291929080359060200190929190505050610a78565b005b34801561032157600080fd5b5061032a610c23565b6040518080602001828103825283818151815260200191508051906020019060200280838360005b8381101561036d578082015181840152602081019050610352565b505050509050019250505060405180910390f35b34801561038d57600080fd5b50610396610d36565b005b3480156103a457600080fd5b506103d1600480360360208110156103bb57600080fd5b8101908080359060200190929190505050610fa4565b604051808215151515815260200191505060405180910390f35b6103f433610fb7565b610449576040517f08c379a000000000000000000000000000000000000000000000000000000000815260040180806020018281038252602a815260200180611549602a913960400191505060405180910390fd5b3373ffffffffffffffffffffffffffffffffffffffff166108fc600160003373ffffffffffffffffffffffffffffffffffffffff1673ffffffffffffffffffffffffffffffffffffffff168152602001908152602001600020600201549081150290604051600060405180830381858888f193505050501580156104d1573d6000803e3d6000fd5b50600160003373ffffffffffffffffffffffffffffffffffffffff1673ffffffffffffffffffffffffffffffffffffffff1681526020019081526020016000206000808201600061052291906114b5565b60018201600061053291906114d6565b600282016000905560038201600090556004820160006101000a81549060ff02191690555050565b6000600160003373ffffffffffffffffffffffffffffffffffffffff1673ffffffffffffffffffffffffffffffffffffffff16815260200190815260200160002060040160009054906101000a900460ff16905090565b60606105bc33610fb7565b61062e576040517f08c379a00000000000000000000000000000000000000000000000000000000081526004018080602001828103825260198152602001807f596f75722057696c6c20446f65736e277420457869737420210000000000000081525060200191505060405180910390fd5b600160003373ffffffffffffffffffffffffffffffffffffffff1673ffffffffffffffffffffffffffffffffffffffff1681526020019081526020016000206000018054806020026020016040519081016040528092919081815260200182805480156106f057602002820191906000526020600020905b8160009054906101000a900473ffffffffffffffffffffffffffffffffffffffff1673ffffffffffffffffffffffffffffffffffffffff16815260200190600101908083116106a6575b5050505050905090565b61070333610fb7565b15610759576040517f08c379a000000000000000000000000000000000000000000000000000000000815260040180806020018281038252602b815260200180611573602b913960400191505060405180910390fd5b6000339080600181540180825580915050600190039060005260206000200160009091909190916101000a81548173ffffffffffffffffffffffffffffffffffffffff021916908373ffffffffffffffffffffffffffffffffffffffff16021790555034600160003373ffffffffffffffffffffffffffffffffffffffff1673ffffffffffffffffffffffffffffffffffffffff1681526020019081526020016000206002018190555060018060003373ffffffffffffffffffffffffffffffffffffffff1673ffffffffffffffffffffffffffffffffffffffff16815260200190815260200160002060040160006101000a81548160ff0219169083600381111561086157fe5b0217905550565b60006002600381111561087757fe5b600160003373ffffffffffffffffffffffffffffffffffffffff1673ffffffffffffffffffffffffffffffffffffffff16815260200190815260200160002060040160009054906101000a900460ff1660038111156108d257fe5b14610928576040517f08c379a000000000000000000000000000000000000000000000000000000000815260040180806020018281038252602c81526020018061151d602c913960400191505060405180910390fd5b600160003373ffffffffffffffffffffffffffffffffffffffff1673ffffffffffffffffffffffffffffffffffffffff16815260200190815260200160002060030154905090565b600080600381111561097e57fe5b600160003373ffffffffffffffffffffffffffffffffffffffff1673ffffffffffffffffffffffffffffffffffffffff16815260200190815260200160002060040160009054906101000a900460ff1660038111156109d957fe5b1415610a30576040517f08c379a000000000000000000000000000000000000000000000000000000000815260040180806020018281038252602c81526020018061151d602c913960400191505060405180910390fd5b600160003373ffffffffffffffffffffffffffffffffffffffff1673ffffffffffffffffffffffffffffffffffffffff16815260200190815260200160002060020154905090565b610a8133610fb7565b610ad6576040517f08c379a000000000000000000000000000000000000000000000000000000000815260040180806020018281038252602c81526020018061151d602c913960400191505060405180910390fd5b600160003373ffffffffffffffffffffffffffffffffffffffff1673ffffffffffffffffffffffffffffffffffffffff1681526020019081526020016000206000016000610b2491906114b5565b60008090505b8351811015610b7057610b63848281518110610b4257fe5b6020026020010151848381518110610b5657fe5b6020026020010151611038565b8080600101915050610b2a565b50804201600160003373ffffffffffffffffffffffffffffffffffffffff1673ffffffffffffffffffffffffffffffffffffffff168152602001908152602001600020600301819055506002600160003373ffffffffffffffffffffffffffffffffffffffff1673ffffffffffffffffffffffffffffffffffffffff16815260200190815260200160002060040160006101000a81548160ff02191690836003811115610c1957fe5b0217905550505050565b6060610c2e33610fb7565b610ca0576040517f08c379a00000000000000000000000000000000000000000000000000000000081526004018080602001828103825260198152602001807f596f75722057696c6c20446f65736e277420457869737420210000000000000081525060200191505060405180910390fd5b600160003373ffffffffffffffffffffffffffffffffffffffff1673ffffffffffffffffffffffffffffffffffffffff168152602001908152602001600020600101805480602002602001604051908101604052809291908181526020018280548015610d2c57602002820191906000526020600020905b815481526020019060010190808311610d18575b5050505050905090565b60008090505b600080549050811015610fa15760026003811115610d5657fe5b60016000808481548110610d6657fe5b9060005260206000200160009054906101000a900473ffffffffffffffffffffffffffffffffffffffff1673ffffffffffffffffffffffffffffffffffffffff1673ffffffffffffffffffffffffffffffffffffffff16815260200190815260200160002060040160009054906101000a900460ff166003811115610de757fe5b1415610eb557610e6e60016000808481548110610e0057fe5b9060005260206000200160009054906101000a900473ffffffffffffffffffffffffffffffffffffffff1673ffffffffffffffffffffffffffffffffffffffff1673ffffffffffffffffffffffffffffffffffffffff16815260200190815260200160002060030154610fa4565b15610eb457610eb360008281548110610e8357fe5b9060005260206000200160009054906101000a900473ffffffffffffffffffffffffffffffffffffffff166111a6565b5b5b60006003811115610ec257fe5b60016000808481548110610ed257fe5b9060005260206000200160009054906101000a900473ffffffffffffffffffffffffffffffffffffffff1673ffffffffffffffffffffffffffffffffffffffff1673ffffffffffffffffffffffffffffffffffffffff16815260200190815260200160002060040160009054906101000a900460ff166003811115610f5357fe5b1415610f945760008181548110610f6657fe5b9060005260206000200160006101000a81549073ffffffffffffffffffffffffffffffffffffffff02191690555b8080600101915050610d3c565b50565b600081610faf6114ad565b119050919050565b6000806003811115610fc557fe5b600160008473ffffffffffffffffffffffffffffffffffffffff1673ffffffffffffffffffffffffffffffffffffffff16815260200190815260200160002060040160009054906101000a900460ff16600381111561102057fe5b1461102e5760019050611033565b600090505b919050565b61104133610fb7565b611096576040517f08c379a000000000000000000000000000000000000000000000000000000000815260040180806020018281038252602c81526020018061151d602c913960400191505060405180910390fd5b600160003373ffffffffffffffffffffffffffffffffffffffff1673ffffffffffffffffffffffffffffffffffffffff168152602001908152602001600020600001829080600181540180825580915050600190039060005260206000200160009091909190916101000a81548173ffffffffffffffffffffffffffffffffffffffff021916908373ffffffffffffffffffffffffffffffffffffffff160217905550600160003373ffffffffffffffffffffffffffffffffffffffff1673ffffffffffffffffffffffffffffffffffffffff1681526020019081526020016000206001018190806001815401808255809150506001900390600052602060002001600090919091909150555050565b60008090505b600160008373ffffffffffffffffffffffffffffffffffffffff1673ffffffffffffffffffffffffffffffffffffffff1681526020019081526020016000206000018054905081101561144557600160008373ffffffffffffffffffffffffffffffffffffffff1673ffffffffffffffffffffffffffffffffffffffff168152602001908152602001600020600001818154811061124657fe5b9060005260206000200160009054906101000a900473ffffffffffffffffffffffffffffffffffffffff1673ffffffffffffffffffffffffffffffffffffffff166108fc600160008573ffffffffffffffffffffffffffffffffffffffff1673ffffffffffffffffffffffffffffffffffffffff16815260200190815260200160002060010183815481106112d757fe5b90600052602060002001549081150290604051600060405180830381858888f19350505050611438578173ffffffffffffffffffffffffffffffffffffffff166108fc600160008573ffffffffffffffffffffffffffffffffffffffff1673ffffffffffffffffffffffffffffffffffffffff168152602001908152602001600020600101838154811061136757fe5b90600052602060002001549081150290604051600060405180830381858888f1935050505015801561139d573d6000803e3d6000fd5b50600160008373ffffffffffffffffffffffffffffffffffffffff1673ffffffffffffffffffffffffffffffffffffffff16815260200190815260200160002060010181815481106113eb57fe5b9060005260206000200154600160008473ffffffffffffffffffffffffffffffffffffffff1673ffffffffffffffffffffffffffffffffffffffff16815260200190815260200160002050505b80806001019150506111ac565b506003600160008373ffffffffffffffffffffffffffffffffffffffff1673ffffffffffffffffffffffffffffffffffffffff16815260200190815260200160002060040160006101000a81548160ff021916908360038111156114a557fe5b021790555050565b600042905090565b50805460008255906000526020600020908101906114d391906114f7565b50565b50805460008255906000526020600020908101906114f491906114f7565b50565b61151991905b808211156115155760008160009055506001016114fd565b5090565b9056fe596f75722077696c6c20646f65736e2774206578697374732c204d6179626520637265617465206f6e65203f596f75722057696c6c20646f656e27742065786973742c204d6179626520637265617465206f6e65203f596f75722077696c6c20616c7265616479206578697374732c204d61796265206d6f64696679206974203fa264697066735822122079b4821cb6ac9d3d8d129c26fdd4e78b71b776d5e5c703994c102a9f60b9b1b464736f6c63430006080033",
  "immutableReferences": {},
  "source": "// SPDX-License-Identifier: GPL-2.0-or-later\npragma solidity ^0.6.0;\n\n\n/* Since you canno return array of structs in sollidity (Still experimental)\n    I decided to have an array of all beneficiaries and an array of all \n    their shares */\n\ncontract Will {\n\n    enum State {NonExistent,Created, Active,PaidOut}\n    struct willDetails {\n\n        address payable [] beneficiaries;\n        uint [] shares;\n        uint totalAmount;\n        uint payoutDate; \n        State state;\n    }\n\n    address payable [] willOwners;\n    mapping (address => willDetails) allWills;\n\n    function willAlreadyExists (address addr) internal view returns(bool) {\n        if (allWills[addr].state != State.NonExistent) {\n            return true;\n        } else {\n            return false;\n        }\n    }\n\n    function initWill () public payable {\n        require (!willAlreadyExists(msg.sender),\"Your will already exists, Maybe modify it ?\");\n        willOwners.push(payable(msg.sender));\n        allWills[msg.sender].totalAmount = msg.value;\n        allWills[msg.sender].state = State.Created;\n    }\n\n    function addBenefeciary(address beneficiary, uint shareInAmount) internal {\n        require(willAlreadyExists(msg.sender),\"Your will doesn't exists, Maybe create one ?\");\n        allWills[msg.sender].beneficiaries.push(payable(beneficiary));\n        allWills[msg.sender].shares.push(shareInAmount);\n    }\n\n    function getWillState() public view returns (State) {\n        return allWills[msg.sender].state;\n    }\n    function getAllBeneficiaries() public view returns (address payable [] memory) {\n        require (willAlreadyExists(msg.sender) ,\"Your Will Doesn't Exist !\"); \n        return allWills[msg.sender].beneficiaries;\n    }\n\n    function getSharesOfBeneficiaries () public view returns(uint [] memory) {\n        require (willAlreadyExists(msg.sender) ,\"Your Will Doesn't Exist !\");\n        return allWills[msg.sender].shares;\n    }\n\n    function getTotalAmount () public view returns(uint) {\n        require (allWills[msg.sender].state != State.NonExistent ,\"Your will doesn't exists, Maybe create one ?\");\n        return allWills[msg.sender].totalAmount;\n    }\n\n    function getCurrentEndDate() public view returns(uint) {\n        require (allWills[msg.sender].state == State.Active ,\"Your will doesn't exists, Maybe create one ?\");\n        return allWills[msg.sender].payoutDate; \n    }\n\n    function editWill (address[] memory addresses,uint[] memory shares, uint payoutDate) public {\n        require (willAlreadyExists(msg.sender),\"Your will doesn't exists, Maybe create one ?\");\n        delete allWills[msg.sender].beneficiaries;\n\n        for (uint i = 0; i < addresses.length;i++) {\n            addBenefeciary(addresses[i],shares[i]);\n        }\n        allWills[msg.sender].payoutDate = now + payoutDate;\n        allWills[msg.sender].state = State.Active;\n    } \n\n    function deleteWill() public {\n        require(willAlreadyExists(msg.sender), \"Your Will doen't exist, Maybe create one ?\");\n        msg.sender.transfer(allWills[msg.sender].totalAmount);\n        delete allWills[msg.sender];\n    }\n\n    function payoutExpiredWills() public {\n        for (uint i=0; i < willOwners.length; i++){\n            if (allWills[willOwners[i]].state == State.Active) {\n                if (checkTimeOfWill(allWills[willOwners[i]].payoutDate) ){\n                    payOutWill(willOwners[i]);\n                }\n            }\n            if (allWills[willOwners[i]].state == State.NonExistent) {\n                delete willOwners[i];\n            }\n        }\n    }\n\n    function payOutWill (address owner) internal {\n        for (uint i=0;i<allWills[owner].beneficiaries.length; i++){\n            if (!allWills[owner].beneficiaries[i].send(allWills[owner].shares[i])) {\n                payable(owner).transfer((allWills[owner].shares[i]));\n                allWills[owner].totalAmount - allWills[owner].shares[i];\n            }\n        }\n\n        allWills[owner].state = State.PaidOut;\n    }\n\n    function getCurrentTime ()virtual internal view returns(uint){\n        return now;\n    }\n    function checkTimeOfWill (uint time) public view returns(bool){\n        return getCurrentTime() > time;\n    }\n}\n",
  "sourcePath": "/home/kiran/repos/Smart-Will/contracts/Will.sol",
  "compiler": {
    "name": "solc",
    "version": "0.6.8+commit.0bbfe453.Emscripten.clang"
  },
  "schemaVersion": "3.1.0",
  "updatedAt": "2020-05-22T04:17:47.282Z",
  "devdoc": {
    "methods": {}
  },
  "userdoc": {
    "methods": {}
  }
}