{
  "contractName": "Will",
  "abi": [
    {
      "inputs": [],
      "name": "initWill",
      "outputs": [],
      "stateMutability": "payable",
      "type": "function"
    },
    {
      "inputs": [
        {
          "internalType": "address",
          "name": "beneficiary",
          "type": "address"
        },
        {
          "internalType": "uint256",
          "name": "shareInAmount",
          "type": "uint256"
        }
      ],
      "name": "addBenefeciary",
      "outputs": [],
      "stateMutability": "nonpayable",
      "type": "function"
    },
    {
      "inputs": [],
      "name": "getAllBeneficiaries",
      "outputs": [
        {
          "internalType": "address payable[]",
          "name": "",
          "type": "address[]"
        }
      ],
      "stateMutability": "view",
      "type": "function"
    },
    {
      "inputs": [],
      "name": "getSharesOfBeneficiaries",
      "outputs": [
        {
          "internalType": "uint256[]",
          "name": "",
          "type": "uint256[]"
        }
      ],
      "stateMutability": "view",
      "type": "function"
    },
    {
      "inputs": [],
      "name": "getTotalAmount",
      "outputs": [
        {
          "internalType": "uint256",
          "name": "",
          "type": "uint256"
        }
      ],
      "stateMutability": "view",
      "type": "function"
    },
    {
      "inputs": [
        {
          "internalType": "address[]",
          "name": "addresses",
          "type": "address[]"
        },
        {
          "internalType": "uint256[]",
          "name": "shares",
          "type": "uint256[]"
        },
        {
          "internalType": "uint256",
          "name": "payoutDate",
          "type": "uint256"
        }
      ],
      "name": "editWill",
      "outputs": [],
      "stateMutability": "nonpayable",
      "type": "function"
    }
  ],
  "bytecode": "0x608060405234801561001057600080fd5b50610c4f806100206000396000f3fe6080604052600436106100555760003560e01c80632f14bae81461005a578063488ad233146100c657806365ac4341146100d05780636fa65903146100fb57806382d912cb1461025e578063b9786ba8146102ca575b600080fd5b34801561006657600080fd5b5061006f610325565b6040518080602001828103825283818151815260200191508051906020019060200280838360005b838110156100b2578082015181840152602081019050610097565b505050509050019250505060405180910390f35b6100ce6104b0565b005b3480156100dc57600080fd5b506100e56105ba565b6040518082815260200191505060405180910390f35b34801561010757600080fd5b5061025c6004803603606081101561011e57600080fd5b810190808035906020019064010000000081111561013b57600080fd5b82018360208201111561014d57600080fd5b8035906020019184602083028401116401000000008311171561016f57600080fd5b919080806020026020016040519081016040528093929190818152602001838360200280828437600081840152601f19601f820116905080830192505050505050509192919290803590602001906401000000008111156101cf57600080fd5b8201836020820111156101e157600080fd5b8035906020019184602083028401116401000000008311171561020357600080fd5b919080806020026020016040519081016040528093929190818152602001838360200280828437600081840152601f19601f820116905080830192505050505050509192919290803590602001909291905050506106c1565b005b34801561026a57600080fd5b50610273610804565b6040518080602001828103825283818151815260200191508051906020019060200280838360005b838110156102b657808201518184015260208101905061029b565b505050509050019250505060405180910390f35b3480156102d657600080fd5b50610323600480360360408110156102ed57600080fd5b81019080803573ffffffffffffffffffffffffffffffffffffffff16906020019092919080359060200190929190505050610959565b005b60606002600481111561033457fe5b6000803373ffffffffffffffffffffffffffffffffffffffff1673ffffffffffffffffffffffffffffffffffffffff16815260200190815260200160002060040160009054906101000a900460ff16600481111561038e57fe5b14156103e5576040517f08c379a0000000000000000000000000000000000000000000000000000000008152600401808060200182810382526037815260200180610bb86037913960400191505060405180910390fd5b6000803373ffffffffffffffffffffffffffffffffffffffff1673ffffffffffffffffffffffffffffffffffffffff1681526020019081526020016000206000018054806020026020016040519081016040528092919081815260200182805480156104a657602002820191906000526020600020905b8160009054906101000a900473ffffffffffffffffffffffffffffffffffffffff1673ffffffffffffffffffffffffffffffffffffffff168152602001906001019080831161045c575b5050505050905090565b6104b933610ac5565b1561050f576040517f08c379a000000000000000000000000000000000000000000000000000000000815260040180806020018281038252602b815260200180610bef602b913960400191505060405180910390fd5b346000803373ffffffffffffffffffffffffffffffffffffffff1673ffffffffffffffffffffffffffffffffffffffff1681526020019081526020016000206002018190555060016000803373ffffffffffffffffffffffffffffffffffffffff1673ffffffffffffffffffffffffffffffffffffffff16815260200190815260200160002060040160006101000a81548160ff021916908360048111156105b357fe5b0217905550565b6000600260048111156105c957fe5b6000803373ffffffffffffffffffffffffffffffffffffffff1673ffffffffffffffffffffffffffffffffffffffff16815260200190815260200160002060040160009054906101000a900460ff16600481111561062357fe5b141561067a576040517f08c379a000000000000000000000000000000000000000000000000000000000815260040180806020018281038252602c815260200180610b8c602c913960400191505060405180910390fd5b6000803373ffffffffffffffffffffffffffffffffffffffff1673ffffffffffffffffffffffffffffffffffffffff16815260200190815260200160002060020154905090565b6106ca33610ac5565b61071f576040517f08c379a000000000000000000000000000000000000000000000000000000000815260040180806020018281038252602c815260200180610b8c602c913960400191505060405180910390fd5b6000803373ffffffffffffffffffffffffffffffffffffffff1673ffffffffffffffffffffffffffffffffffffffff168152602001908152602001600020600001600061076c9190610b45565b60008090505b83518110156107b8576107ab84828151811061078a57fe5b602002602001015184838151811061079e57fe5b6020026020010151610959565b8080600101915050610772565b50806000803373ffffffffffffffffffffffffffffffffffffffff1673ffffffffffffffffffffffffffffffffffffffff16815260200190815260200160002060030181905550505050565b60606002600481111561081357fe5b6000803373ffffffffffffffffffffffffffffffffffffffff1673ffffffffffffffffffffffffffffffffffffffff16815260200190815260200160002060040160009054906101000a900460ff16600481111561086d57fe5b14156108c4576040517f08c379a0000000000000000000000000000000000000000000000000000000008152600401808060200182810382526037815260200180610bb86037913960400191505060405180910390fd5b6000803373ffffffffffffffffffffffffffffffffffffffff1673ffffffffffffffffffffffffffffffffffffffff16815260200190815260200160002060010180548060200260200160405190810160405280929190818152602001828054801561094f57602002820191906000526020600020905b81548152602001906001019080831161093b575b5050505050905090565b61096233610ac5565b6109b7576040517f08c379a000000000000000000000000000000000000000000000000000000000815260040180806020018281038252602c815260200180610b8c602c913960400191505060405180910390fd5b6000803373ffffffffffffffffffffffffffffffffffffffff1673ffffffffffffffffffffffffffffffffffffffff168152602001908152602001600020600001829080600181540180825580915050600190039060005260206000200160009091909190916101000a81548173ffffffffffffffffffffffffffffffffffffffff021916908373ffffffffffffffffffffffffffffffffffffffff1602179055506000803373ffffffffffffffffffffffffffffffffffffffff1673ffffffffffffffffffffffffffffffffffffffff1681526020019081526020016000206001018190806001815401808255809150506001900390600052602060002001600090919091909150555050565b6000806004811115610ad357fe5b6000808473ffffffffffffffffffffffffffffffffffffffff1673ffffffffffffffffffffffffffffffffffffffff16815260200190815260200160002060040160009054906101000a900460ff166004811115610b2d57fe5b14610b3b5760019050610b40565b600090505b919050565b5080546000825590600052602060002090810190610b639190610b66565b50565b610b8891905b80821115610b84576000816000905550600101610b6c565b5090565b9056fe596f75722077696c6c20646f65736e2774206578697374732c204d6179626520637265617465206f6e65203f596f75722057696c6c2065697468657220686173206e6f2062656e656669636961726965732c206f722069732050616964206f75742021596f75722077696c6c20616c7265616479206578697374732c204d61796265206d6f64696679206974203fa2646970667358221220a957c9d75f42e920e2e5e7ca0402ef4b71906df87c514b1f0b9b0b1c06b4e1dc64736f6c63430006080033",
  "immutableReferences": {},
  "source": "// SPDX-License-Identifier: GPL-2.0-or-later\npragma solidity ^0.6.0;\n\n\n/* Since you canno return array of structs in sollidity (Still experimental)\n    I decided to have an array of all beneficiaries and an array of all \n    the share */\n\ncontract Will {\n\n    enum State {NonExistent,Created, Active, OverDeadline, PaidOut}\n    struct willDetails {\n\n        address payable [] beneficiaries;\n        uint [] shares;\n        uint totalAmount;\n        uint payoutDate; \n        State state;\n    }\n\n    mapping (address => willDetails) allWills;\n\n\n    modifier inState (State expected,address addr) {\n        require (allWills[addr].state == expected,\"Invalid method call in this state !\");\n        _;\n    }\n\n    function willAlreadyExists (address addr) internal view returns(bool) {\n        if (allWills[addr].state != State.NonExistent) {\n            return true;\n        } else {\n            return false;\n        }\n    }\n\n    function initWill () public payable {\n        require (!willAlreadyExists(msg.sender),\"Your will already exists, Maybe modify it ?\");\n        allWills[msg.sender].totalAmount = msg.value;\n        allWills[msg.sender].state = State.Created;\n    }\n\n    function addBenefeciary(address beneficiary, uint shareInAmount) public {\n        require(willAlreadyExists(msg.sender),\"Your will doesn't exists, Maybe create one ?\");\n        allWills[msg.sender].beneficiaries.push(payable(beneficiary));\n        allWills[msg.sender].shares.push(shareInAmount);\n    }\n\n\n    function getAllBeneficiaries() public view returns (address payable [] memory) {\n        require (allWills[msg.sender].state != State.Active ,\"Your Will either has no beneficiaries, or is Paid out !\");\n        return allWills[msg.sender].beneficiaries;\n    }\n\n    function getSharesOfBeneficiaries () public view returns(uint [] memory) {\n        require (allWills[msg.sender].state != State.Active ,\"Your Will either has no beneficiaries, or is Paid out !\");\n        return allWills[msg.sender].shares;\n    }\n\n    function getTotalAmount () public view returns(uint) {\n        require (allWills[msg.sender].state != State.Active ,\"Your will doesn't exists, Maybe create one ?\");\n        return allWills[msg.sender].totalAmount;\n    }\n\n\n    function editWill (address[] memory addresses,uint[] memory shares, uint payoutDate) public {\n        require (willAlreadyExists(msg.sender),\"Your will doesn't exists, Maybe create one ?\");\n        delete allWills[msg.sender].beneficiaries;\n\n        for (uint i = 0; i < addresses.length;i++) {\n            addBenefeciary(addresses[i],shares[i]);\n        }\n        allWills[msg.sender].payoutDate = payoutDate;\n    } \n}\n",
  "sourcePath": "/home/kiran/repos/Smart-Will/contracts/Will.sol",
  "compiler": {
    "name": "solc",
    "version": "0.6.8+commit.0bbfe453.Emscripten.clang"
  },
  "schemaVersion": "3.1.0",
  "updatedAt": "2020-05-15T10:26:22.797Z",
  "devdoc": {
    "methods": {}
  },
  "userdoc": {
    "methods": {}
  }
}